:1000000012C021C020C020C01EC01DC01CC01BC00B
:100010001AC019C018C017C016C015C014C013C02C
:1000200012C011C010C011241FBECFE5D4E0DEBF46
:10003000CDBF10E0A0E6B0E001C01D92A236B1072E
:10004000E1F726D053C0DCCF1F920F920FB60F926C
:1000500011242F933F938F939F93DF93CF93CDB72B
:10006000DEB7809160009091610021E030E082274E
:1000700093279093610080936000CF91DF919F91CF
:100080008F913F912F910F900FBE0F901F90189559
:10009000DF93CF93CDB7DEB7E7E3F0E082E0808374
:1000A000E4E4F0E01082E3E4F0E08CE98083A5E48E
:1000B000B0E0E5E4F0E080818C608C93A9E5B0E0ED
:1000C000E9E5F0E0808180688C937894809160000D
:1000D00090916100009729F0E8E3F0E085E58083E6
:1000E000F5CFE8E3F0E08AEA8083F0CFF894FFCF21
:00000001FF
